:030000000212B039
:0C12B000787FE4F6D8FD75815F0212F72C
:10104F0057617465724C6576656C3A0020002E000E
:10105F005741524E3A4F766572205573696E67004D
:10106F0053746174653A4D616E756C202020202099
:10107F000053746174653A6175746F2020202020CD
:10108F0020004F76657220546F706C696D69740023
:10109F004F766572204C6F7765724C696D6974007D
:1010AF0053746174653A4175746F202020202000BD
:1010BF0053746174653A5069644E6F726D616C2040
:1010CF00200053746174653A5049444175746F2020
:1010DF0020200057617465725F483A00202000633A
:1010EF006D202020200057617465725F4C3A0020FC
:1010FF002020005049445F4B493A002020202020F7
:10110F002020004D6F746F725F4B3A00202020201B
:10111F00202020200041696D4C6576656C3A0020D7
:04112F00546F6E008B
:1013EE00014C0C014D0804553E99999A025EFFFF7F
:1013FE0008210000000000000000012D01022EFF58
:10140E00FF04300000000004343E99999A0438001D
:03141E00000000CB
:0C151500C2AF53E71843E70143E7802210
:0915360053E77FE4F5E6D2AF2291
:0B15210012151575E64675E6B90022AC
:0414AA007F007E261B
:1014AE00AD07AC06C2AF8CE3EDF5E453E5F843E5CA
:0C14BE0001121521121536D2AFAFE22248
:0414E6007F007E24E1
:1014EA00EE54FEFEF5E3E4F5E453E5F843E50312B2
:0514FA0015210215366A
:1014CA00AB07AA06C2AF8AE3EBF5E453E5F843E5B6
:0C14DA00028DE2121521121536D2AF224D
:0B14FF007C00E4FF1213687FDC7E0518
:0B150A00EF1FAC0670011E4C70F622B3
:0A152C001214E6AD467E240214CA34
:06000300755E008F5F2214
:1013B800EF7007D2A012152C8020BF010730A004BF
:1013C800C2A08016BF0204B2A0800FBF030C20A0E9
:1013D800047F0180027F007E00227FF47E011215C7
:0513E8000A7E007F02F7
:0113ED0022DD
:10138100D292C291C292D290D291C291D290D29174
:10139100C291C290D291C291D290D291E4FFD291E6
:1013A100C291ED25E0FDA290E43342050FBF08EEA6
:0613B100D292EDFF7E0068
:0113B7002213
:10133C007C00E4FF121368AB52AA51A950A84FE4E9
:10134C00FFFE7D207C411206041208727C007D0A8F
:0C135C00120961ED2430FDE43CFC7F012F
:10136800AB05C2A7EF24FF92A58B80C2A6D2A77FA8
:09137800017E0012150AC2A72231
:061451007BFF7A10795BBD
:101457008B088A09890AAB08AA09A90A1208F36046
:1014670015FD7C007F011213687401250AF50AE453
:071477003509F50980E022B0
:10147E007D011214FF7D381214FF7D0C7C00E4FFF9
:10148E001213687D067C00E4FF1213687DD07C0089
:0C149E00E4FF1213687FDC7E0502150AD3
:10000E00E54460030201277D80FCFF1213687BFF2D
:10001E007A10794F1214577D8B7C00E4FF1213680F
:10002E00E4FFFE7D207C41AB43AA42A941A84012C9
:10003E0007AA4020AF43AE42AD41AC401208727CDD
:10004E00007D0A120961EF2430FDE43EFC7F0112AF
:10005E00136880031214517D8C7C00E4FF12136828
:10006E00AF43AE42AD41AC401213557D8D7C00E4E2
:10007E00FF1213687BFF7A10795D121457AB43AAF7
:10008E0042A941A84012134B7DC07C00E4FF12131D
:10009E0068E55D70097BFF7A10796F020508E55DF2
:1000AE00640170557BFF7A107980121457AC4CE4C2
:1000BE0012083EAB43AA42A941A8401207AA6014F7
:1000CE0040127DC07C00E4FF1213687BFF7A10792A
:1000DE0091020508AC4DE412083EAB43AA42A94179
:1000EE00A8401207AA7BFF600250077A10799F0280
:1000FE0005087A1079AF020508E55DB403097BFFA8
:10010E007A1079BF020508E55D6402600302050BF3
:10011E007BFF7A1079D1020508E54464016009E598
:10012E0044640260030202467D807C00E4FF1213E9
:10013E00687BFF7A1079E21214577D887C00E4FF09
:10014E00121368E544B4010E30000B7BFF7A107970
:10015E00EB12145780487D887C00E4FF121368E58B
:10016E004CD394094019E54C75F00A8475F00A8455
:10017E00E5F02430FDE433FC7F0112136880031296
:10018E0014517D897C00E4FF121368E54C75F00A6A
:10019E0084E5F02430FDE433FC7F011213687D8A80
:1001AE007C00E4FF1213687BFF7A1079EE1214576D
:1001BE007DC07C00E4FF1213687BFF7A1079F51284
:1001CE001457E544B402173000147DC87C00E4FFD8
:1001DE001213687BFF7A1079EB12145780487DC892
:1001EE007C00E4FF121368E54DD394094019E54DE8
:1001FE0075F00A8475F00A84E5F02430FDE433FCD2
:10020E007F0112136880031214517DC97C00E4FF34
:10021E00121368E54D75F00A84E5F02430FDE433E1
:10022E00FC7F011213687DCA7C00E4FF1213687B09
:10023E00FF7A1079EE020508E544640360030204B8
:10024E00057D80FCFF1213687C00E4FF121368AF7B
:10025E0052AE51AD50AC4F1208727C007D0A12099D
:10026E0061EF2430FDE43EFC7F011213687D817C3A
:10027E0000E4FF121368AF52AE51AD50AC4F1213E3
:10028E00557BFF7A10795D1214577D8312133C7BD8
:10029E00FF7A1079EB1214577D867C00E4FF12135F
:1002AE0068AF58AE57AD56AC551208727C007D0A39
:1002BE0012090CEF2430FDE43EFC7F011213687D21
:1002CE00877C00E4FF121368AF58AE57AD56AC559D
:1002DE001208727C007D0A12090C12135F7BFF7AE2
:1002EE0010795D1214577D897C00E4FF121368E4C7
:1002FE00FFFE7D207C41AB58AA57A956A855120681
:10030E00041208727C007D0A12090C12135F7D8A9A
:10031E007C00E4FF121368E4FFFE7DC87C42AB58FC
:10032E00AA57A956A8551206041208727C007D0A17
:10033E0012090C12135F7BFF7A1079FE1214577D8F
:10034E00C07C00E4FF1213687BFF7A11790212144D
:10035E0057E544B403153000127DC77C00E4FF124C
:10036E0013687BFF7A11790A0205087DC77C00E4C9
:10037E00FF1213681214517DC87C00E4FF1213683B
:10038E00AF58AE57AD56AC551208727C007D0A12AE
:10039E00090C12135F7BFF7A10795D1214577DCA18
:1003AE007C00E4FF121368E4FFFE7D207C41AB5815
:1003BE00AA57A956A8551206041208727C007D0A87
:1003CE0012090C12135F7DCB7C00E4FF121368E45C
:1003DE00FFFE7DC87C42AB58AA57A956A8551206F7
:1003EE00041208727C007D0A12090CED2430FDE423
:1003FE003CFC7F01021368E54464046009E5446433
:10040E0005600302050B7D807C00E4FF1213687B00
:10041E00FF7A1179121214577D887C00E4FF1213B3
:10042E0068E544B4040F30000C7BFF7A11791B127F
:10043E001457020483AF52AE51AD50AC4F12087236
:10044E007C007D0A120961EF2430FDE43EFC7F0141
:10045E001213687D897C00E4FF121368AF52AE510F
:10046E00AD50AC4F1213557BFF7A10795D121457B5
:10047E007D8B12133C7DC07C00E4FF1213687BFF62
:10048E007A117924121457E544B405173000147DFF
:10049E00C97C00E4FF1213687BFF7A1079FE1214F8
:1004AE005780487DC97C00E4FF121368E547D3945A
:1004BE00094019E54775F00A8475F00A84E5F024C1
:1004CE0030FDE433FC7F0112136880031214517D5A
:1004DE00CA7C00E4FF121368E54775F00A84E5F064
:1004EE002430FDE433FC7F011213687DCB7C00E4E5
:0E04FE00FF1213687BFF7A11792E1214572219
:1009B10020B2237F787E0312150A20B21920B205D6
:1009C10012000E80F8E5442401FFE433FE7C007D33
:1009D1000612090C8D4430B303020AF57F787E03B9
:1009E10012150A30B303020AF520B30512000E8076
:1009F100F8E544B40117E54CC394645002054C7FFB
:100A0100007E201214EAAD4C7E20020ADCE544B4DB
:100A1100021AE54C14FFE54DC39F5002054D7F00BE
:100A21007E221214EAAD4D7E22020ADCE544640303
:100A31007043FFFE7DA07C41AB58AA57A956A8552B
:100A41001207AA501AAF58AE57AD56AC55E4FBFA8F
:100A51007980783F1205138F588E578D568C551219
:100A610014E6AF58AE57AD56AC55120872AD077FBC
:100A7100007E248066E54464047047FFFE7D107C9F
:100A810041AB52AA51A950A84F1207AA501AAF520E
:100A9100AE51AD50AC4FE4FBFA7980783F120513AB
:100AA1008F528E518D508C4F7F007E261214EAAFEB
:100AB10052AE51AD50AC4F120872AD077F007E2689
:100AC1008019E544B40519E547C39463500205470D
:100AD1007F007E281214EAAD477E281214CA8014C2
:100AE100E5447010E55D045403F55DE4F55EF55FE2
:100AF100FF1213B830B403020C487F787E0312153D
:100B01000A30B403020C4820B40512000E80F8E547
:100B11004464017025E54D2401FFE433FED3E54C27
:100B21009FEE6480F87480984002154C7F007E200F
:100B31001214EAAD4C7E20020C08E544B40217E51C
:100B41004DD394004002154D7F007E221214EAAD70
:100B51004D7E22020C08E54464037043FFFEFDFC58
:100B6100AB58AA57A956A8551207AA601C401AAF3C
:100B710058AE57AD56AC55E4FBFA7980783F120573
:100B81000F8F588E578D568C551214E6AF58AE57AD
:100B9100AD56AC55120872AD077F007E248068E522
:100BA1004464047049FFFE7D807C3FAB52AA51A989
:100BB10050A84F1207AA601C401AAF52AE51AD5057
:100BC100AC4FE4FBFA798078BF1205138F528E5136
:100BD1008D508C4F7F007E261214EAAF52AE51AD7C
:100BE10050AC4F120872AD077F007E268019E54494
:100BF100B40517E547D39401400215477F007E28CD
:100C01001214EAAD477E280214CAE5447039E55D45
:100C110070087F021213B8B29422E55DD3940140AB
:100C2100261214AAAC07E412083E8F528E518D5041
:100C31008C4F7F007E241214AEAC07E412083E8F65
:080C4100588E578D568C552288
:1011FB00E55D6401600302128AC201AC4C12083E29
:10120B00AB43AA42A941A8401207AA4005E4FF122A
:10121B0013B8AC4CE412083EAB43AA42A941A84018
:10122B001207AA60064004C2948002D294AC4DE42B
:10123B0012083EAB43AA42A941A8401207AA60027A
:10124B0050097F011213B8C2968002D296AC4CE4BF
:10125B0012083EAB43AA42A941A8401207AA60025A
:10126B005015AC4DE412083EAB43AA42A941A8402D
:10127B001207AA60025003D20322C202C20322E564
:10128B005DB40209D201D296D294C20322E55D70FD
:10129B0009C201C203D296D29422E55DB4030520A4
:0512AB000102D2012246
:10113300E559C3941450330559AB3FAA3EA93DA8C2
:101143003CC000C001C002C003121381AC06AD074E
:10115300E4120839D003D002D001D0001205138F56
:101163003F8E3E8D3D8C3C0211F2E4F5597FCD7EDE
:10117300CC7DCC7C3DAB3FAA3EA93DA83C120604E6
:10118300C004C005C006C0077466FFFEFD7C3FAB0C
:101193004BAA4AA949A848120604D003D002D00199
:1011A300D0001205138F4B8E4A8D498C48E4F53FCE
:1011B300F53EF53DF53CFFFE7DA07C42AB4BAA4AD4
:1011C300A949A8481207AA60264024E4FFFE7DA08F
:1011D3007CC2AB4BAA4AA949A848120513E4FBFAFF
:1011E3007940784212070D8F438E428D418C40AF78
:0811F30043AE42AD41AC4022C5
:081422008F0E8E0D8D0C8C0B5A
:10142A00E4FFFEFDFCAB0EAA0DA90CA80B1207AA3D
:10143A004009AF0EAE0DAD0CAC0B22AF0EAE0DAD2A
:06144A000CAC0B1208239C
:011450002279
:100C4900E52F2401FFE4352EFE7C007D02120961A7
:100C59008C2E8D2F852824852723852622852521DD
:100C6900AC47E412083EAB43AA42A941A840120589
:100C79000F8F288E278D268C25AF33AE32AD31AC40
:100C890030AB28AA27A926A8251205138F338E323F
:100C99008D318C30AB28AA27A926A825AF24AE23ED
:100CA900AD22AC2112050F8F3B8E3A8D398C38E578
:100CB9005D64026003020D49AF28AE27AD26AC255D
:100CC900121422E4FBFAF9784012070DE4FBFA79D1
:100CD90080783F1205138F528E518D508C4FE4FF4F
:100CE900FEFDFCAB3BAA3AA939A8381207AA602A2B
:100CF9004028AF58AE57AD56AC55AB52AA51A95082
:100D0900A84F1206047B9A7A997999783F120604BA
:100D19008F588E578D568C558026AF58AE57AD5685
:100D2900AC55AB52AA51A950A84F1206047B9A7A26
:100D3900997999783F12070D8F588E578D568C5592
:100D4900E52F25E025E02421F81209A5AB52AA5187
:100D5900A950A84F120604C004C005C006C007AFB9
:100D690033AE32AD31AC30AB58AA57A956A855129B
:100D79000604D003D002D001D000120513C004C06C
:100D890005C006C007AF3BAE3AAD39AC38AB37AAA0
:100D990036A935A834120604D003D002D001D000F8
:100DA9001205138F2C8E2B8D2A8C29E4FFFE7D8052
:100DB9007C3FAB2CAA2BA92AA8291207AA601040AC
:100DC9000EAF2CAE2BAD2AAC29120872020003E437
:040DD900F55EF55F6F
:010DDD0022F3
:100DDE00D2A0758901758C3C758AB0D2A9D28CD2FD
:100DEE00AF12147E7F007E201214AE8F4C7F007ED9
:100DFE00221214AE8F4DC2017553021214AAAC0703
:100E0E00E412083E8F528E518D508C4FE4FFFE7DC2
:100E1E00207C41AB52AA51A950A84F1207AA6002DA
:100E2E005014E4FFFE7D807C3FAB52AA51A950A81E
:100E3E004F1207AA5009E4F552F551F550F54F7FC0
:100E4E00007E241214AEAC07E412083E8F588E5763
:100E5E008D568C557F667E667D1E7C41AB58AA579B
:100E6E00A956A8551207AA600250157FCD7ECC7DDB
:100E7E00CC7C3DAB58AA57A956A8551207AA500AC2
:100E8E00E4F558F557F55675553F7F007E2412143C
:100E9E00AE7545008F46D3E5469463E54594005004
:100EAE000BC3E5469401E54594005005E4F545F580
:100EBE00461214AAAC07E412083E8F528E518D5082
:100ECE008C4FE4FFFE7D107C41AB52AA51A950A875
:100EDE004F1207AA60025014E4FFFE7D807C3FABE8
:100EEE0052AA51A950A84F1207AA500BE4F552F579
:100EFE00517550A0754F407F007E281214AE8F475B
:100F0E00E547D394635007E547C3940150037547F3
:100F1E0010C202E54CD39463500DE54D9463500717
:100F2E00E54DC3954C4006754C0E754D07121133A9
:0B0F3E0012000E1209B11211FB80F22C
:03000B00020F4998
:100F4900C0E0C0F0C083C082C0D075D000C000C06E
:100F590001C002C003C004C005C006C007758C3CAF
:100F6900758AB0055CE55C75F00584E5F07002B240
:100F790000E55C75F00A84E5F07016300304B2935D
:100F89008002D293300206B294B2968004D296D2ED
:100F990094E55CD394135003021034300126E55DC7
:100FA90064026005E55DB4031BE54E7006120C4949
:100FB900754E00E54E2401FFE433FEAD537C00126B
:100FC900090C8D4ED3E55F9400E55E648094804002
:100FD900187F031213B8EF4E700F7F011213B8E593
:100FE9005F155F7043155E803FD3E55F9400E55E52
:100FF9006480948040157F031213B8EF64014E702A
:101009000AE55F155F7021155E801DE55F455E701D
:10101900177F031213B8EF64014E700CFF1213B857
:10102900E55F155F7002155E755C00D007D006D0CC
:1010390005D004D003D002D001D000D0D0D082D0C6
:0610490083D0F0D0E0327C
:10050C000208DEE86480F8E933E83360110460F037
:10051C00ED33EC337009E8FCE9FDEAFEEBFF220455
:10052C0060DED3EB9FEA9EE99DE8C2E78CF0C2F750
:10053C0095F0400CE8CCF8E9CDF9EACEFAEBCFFB1C
:10054C001208A985D0F05804700320D5B3E80470C4
:10055C00075002B2D50208E892D5EC0460F7E4CC5F
:10056C00C0E0C398F8603B94186008400DD0E0FBE5
:10057C000208C0E4FBFAC9FC8028E830E406E4C9B0
:10058C00FBE4CAFCE830E305E4C9CACBFCE8540739
:10059C006010F8C3E913F9EA13FAEB13FBEC13FC44
:1005AC00D8F130F52FC3E49CFCEF9BFFEE9AFEEDE7
:1005BC0099FDD0E0FBEF4E4D4C701222DB0302088C
:1005CC00E5EC2CFCEF33FFEE33FEED33FDED30E7C5
:1005DC00EB0208C0EF2BFFEE3AFEED39FDD0E0FB4D
:1005EC0050130BBB00030208E8ED13FDEE13FEEFF6
:0805FC0013FFEC13FC0208C020
:10060400EC4D6011E8497017ED33EC3304600DE4F0
:10061400FCFFFEFD22E933E8330470F80208DE1221
:1006240008A958046009E4CC248150062850090222
:1006340008E82840030208E5C0E0EB4A7044B980AA
:1006440006D0E0FB0208D4EF4E701CBD8008EBFF1F
:10065400EAFEE9FD80EBE98DF0A4FEE5F00206ED8B
:10066400E9CDF9EAFEEBFFEF89F0A4FCE5F0CE89D1
:10067400F0A42EFFE435F0CD89F0A42DFEE435F08E
:100684008067EF4E7005BD80D780C3EF8BF0A4ACBC
:10069400F0EE8BF0A42CFCE435F0F8EF8AF0A42CF7
:1006A400E5F038FCE433CB8DF0A42CFCE5F03BF80A
:1006B400EE8AF0A42CFCE5F038F8E433CF89F0A4FA
:1006C4002CFCE5F038CF3400CE89F0A42FFFE5F000
:1006D4003EFEE433C98DF0A42EFEE5F039CD8AF058
:1006E400A42FFFE5F03EFEE43DFD33D0E0FB5007D0
:1006F4000BBB000F0208E8EC2CFCEF33FFEE33FEDB
:06070400ED33FD0208C008
:10070A000208E8EC5D046005E8590470030208DE9B
:10071A001208A9580460F6EC4860F2EC7004FDFE79
:10072A00FF22C860DB2481C85009C39860025006C2
:10073A000208E59850CAF582E9294B4A7005AB824E
:10074A000208D475F0007C1A7880C3EF9BEE9AED0C
:10075A0099400DC3EF9BFFEE9AFEED99FDE842F03A
:10076A00DC23ACF0D0E0FFD0E0FED0E0FDAB82208D
:10077A00E7101BEB60BAEC2CFCEF33FFEE33FEED17
:10078A0033FD0208C0E803F830E705C0F075F00051
:10079A00EF2FFFEE33FEED33FD40B830E7C280AAFB
:1007AA0074F8CC6480CCC86480C8F58204604FC3F6
:1007BA00EB9FF5F0EA9E42F0E99D42F0E89C45F095
:1007CA00603C501DE5825FFFE582D313CB5BCBF41F
:1007DA002B5582FB50280ABA002409B90020088048
:1007EA001DE5825BFBE582D313CF5FCFF4C3132FE2
:1007FA005582FF50090EBE00050DBD00010CC3EB6A
:10080A009FF5F0EA9E42F0E99D42F0E89C45F060CF
:09081A0007CC4820E701B3EC22F1
:10082300ED33EC33600A047003BD8004ECB2E7FCE3
:0108330022A2
:1008340075F020800E75F010800575F0087D007E3F
:10084400007F003392D530D503120997EC33401062
:10085400EF33FFEE33FEED33FDEC33FCD5F0ED2248
:0E086400E5F0247EA2D513CC92E7CDCEFF2284
:10087200EDD2E7CD33EC3392D524814006E4FFFE7E
:10088200FDFC22FCE4CFCECDCC24E0501174FF80DD
:10089200EDC3CC13CCCD13CDCE13CECF13CF04707A
:0708A200F030D5DE020997DA
:1008A900E9D2E7C933E833F892D5EDD2E7CD33EC95
:0708B90033FC5002B2D5220E
:1008C000EC30E7100FBF000C0EBE00080DBD000499
:1008D0000BEB6014A2D5EB13FCED92E7FD2274FF45
:1008E000FCFDFEFF22E480F8A2D574FF13FC7D809E
:0308F000E480EFB2
:1012BC00020DDEE493A3F8E493A34003F68001F25D
:1012CC0008DFF48029E493A3F85407240CC8C33333
:1012DC00C4540F4420C8834004F456800146F6DF02
:1012EC00E4800B01020408102040809013EEE47E91
:1012FC00019360BCA3FF543F30E509541FFEE493F7
:10130C00A360010ECF54C025E060A840B8E493A3BD
:10131C00FAE493A3F8E493A3C8C582C8CAC583CAE8
:10132C00F0A3C8C582C8CAC583CADFE9DEE780BEA0
:0114210000CA
:1008F300BB010689828A83E0225002E722BBFE0203
:09090300E32289828A83E4932235
:10090C00BC000BBE0029EF8DF084FFADF022E4CCCF
:10091C00F875F008EF2FFFEE33FEEC33FCEE9DEC98
:10092C00984005FCEE9DFE0FD5F0E9E4CEFD22EDDE
:10093C00F8F5F0EE8420D21CFEADF075F008EF2F28
:10094C00FFED33FD4007985006D5F0F222C398FD19
:05095C000FD5F0EA22B6
:10096100C2D5EC30E709B2D5E4C39DFDE49CFCEEB1
:1009710030E715B2D5E4C39FFFE49EFE12090CC314
:10098100E49DFDE49CFC800312090C30D507C3E40F
:060991009FFFE49EFE2220
:0E099700C3E49FFFE49EFEE49DFDE49CFC2271
:0C09A500E6FC08E6FD08E6FE08E6FF227E
:00000001FF
